:100000000C94AF050C94E7050C94E7050C94E705F8
:100010000C94E7050C94E7050C94E7050C94E705B0
:100020000C94E7050C94E7050C94622C0C94362D87
:100030000C946C270C94E7050C94E7050C94E705E9
:100040000C94E7050C94E7050C94E7050C94E70580
:100050000C94E7050C94F2270C94E7050C94E70543
:100060000C94E7050C94E7050C94E7050C94E70560
:100070000C94E7050C94E7050C94E7050C94E70550
:100080000C94E7050C94E7050C94E7050C94E70540
:100090000C94E7050C94E7050C94E7050C94E70530
:1000A0000C94E7050C94E7050C94E70500000103A8
:1000B000060C183123664444C4C484848484C4C4B4
:1000C0004446662311180C06030000001F78C10F78
:1000D00038E0C00000020E0E8EC6C04040C0C68E82
:1000E0000E0E020080C060380FC07C0FF81EC3F8EF
:1000F0005C767B6D755555756D7B765E7E775B6D39
:10010000755555754D7B665CF0C33EF0000080C0B0
:100110006030180C040682C34361A1A1A1A1614310
:10012000C38206040C183060C0800000202020002C
:100130005343522000202020004341502000202023
:1001400020004E554D20005374617475733A2000A1
:100150004E2F412000524742202000456D70747997
:10016000200044447261667420004E756D706164B5
:1001700020004C617965723A20006B38204E6F6F19
:10018000646C6500000000000000530059005A0034
:100190005B005C005D005E005F006000610062006B
:1001A0000000530000000000000000002C00E000F0
:1001B000E100E20004002A0000000000000000004E
:1001C0000000160800000000000000000000000011
:1001D000000000000000000000000000000000001F
:1001E00000000000000000000000C35CCE5CC65CA4
:1001F000C75C000000000000CA5CCB5CC85CC95C46
:100200000000000000000000000000002A2B280071
:1002100000000000000000000000000000000029B5
:10022000000000002C1E3420212224342627252EF5
:10023000362D3738271E1F2021222324252633332D
:10024000362E37381F0405060708090A0B0C0D0E59
:100250000F101112131415161718191A1B1C1D2F25
:100260003130232D350405060708090A0B0C0D0E45
:100270000F101112131415161718191A1B1C1D2F05
:100280003130354C0000000000000000000000008C
:10029000000000000000000000000000000000005E
:1002A00000000000000000007E0F00D4FFFFFFC729
:1002B0000000007800047F3F1F6432146432147819
:1002C0003C1E1E140A052223252628292A2C2D2F00
:1002D0003032333536383A3B3D3E4042434547495C
:1002E0004A4C4E5051535557595A5C5E6062646691
:1002F00068696B6D6F71737577797B7D7F8183859D
:1003000087898A8C8E90929496989A9C9E9FA1A39E
:10031000A5A7A8AAACAEAFB1B3B4B6B8B9BBBCBEC2
:10032000BFC1C2C3C5C6C7C9CACBCCCDCED0D1D23E
:10033000D2D3D4D5D6D7D7D8D9D9DADADBDBDBDC40
:10034000DCDCDCDCDDDDDDDDDCDCDCDCDCDBDBDBEC
:10035000DADAD9D9D8D7D7D6D5D4D3D2D2D1D0CE4C
:10036000CDCCCBCAC9C7C6C5C3C2C1BFBEBCBBB951
:10037000B8B6B4B3B1AFAEACAAA8A7A5A3A19F9ECF
:100380009C9A98969492908E8C8A89878583817F97
:100390007D7B79777573716F6D6B69686664626078
:1003A0005E5C5A5957555351504E4C4A4947454344
:1003B00042403E3D3B3A3836353332302F2D2C2AE1
:1003C000292826252322FFAA7F554000010101018B
:1003D0000101010101020202020202020202030300
:1003E00003030303030304040404040404050505D0
:1003F0000505060606060607070707070808080892
:10040000090909090A0A0A0B0B0B0C0C0C0D0D0D3E
:100410000E0E0E0F0F0F10101111111212131314D4
:1004200014151516161717181819191A1A1B1B1C4C
:100430001D1D1E1E1F2020212222232424252626A6
:10044000272829292A2B2C2D2D2E2F3031323233DB
:100450003435363738393A3B3C3D3E3F40414243E4
:100460004445464748494A4C4D4E4F5051535455C8
:100470005658595A5B5D5E5F616264656668696B78
:100480006C6D6F7072737577787A7B7D7E808283F6
:100490008587888A8C8E8F91939596989A9C9EA03A
:1004A000A2A3A5A7A9ABADAFB1B3B5B7BABCBEC047
:1004B000C2C4C6C9CBCDCFD1D4D6D8DBDDDFE2E410
:1004C000E7E9EBEEF0F3F5F8FAFDFF00AE00AF0060
:1004D000DA0281FFD9F1DB20A4A62EAF00A0C00074
:1004E000A1C800AED580A81FD300408D14200007FE
:1004F000087F0807003E5B4F5B3E003E6B4F6B3E44
:10050000001C3E7C3E1C00183C7E3C18001C577DA5
:10051000571C001C5E7F5E1C0000183C180000FF8A
:10052000E7C3E7FF00001824180000FFE7DBE7FF40
:100530000030483A060E00262979292600407F051A
:10054000050700407F05253F005A3CE73C5A007FE5
:100550003E1C1C0800081C1C3E7F0014227F221435
:10056000005F5F005F5F0006097F017F0000668912
:10057000956A0060606060600094A2FFA294000829
:10058000047E04080010207E20100008082A1C08A1
:1005900000081C2A0808001E10101010000C1E0C69
:1005A0001E0C0030383E383000060E3E0E060000AD
:1005B000000000000000005F0000000007000700CE
:1005C00000147F147F1400242A7F2A1200231308AA
:1005D00064620036495620500000080703000000FE
:1005E0001C224100000041221C00002A1C7F1C2A02
:1005F0000008083E08080000807030000008080865
:100600000808000000606000002010080402003E9E
:100610005149453E0000427F400000724949494629
:10062000002141494D33001814127F100027454521
:100630004539003C4A49493100412111090700363A
:100640004949493600464949291E00000014000066
:10065000000040340000000008142241001414146B
:100660001414000041221408000201590906003E3A
:10067000415D594E007C1211127C007F4949493678
:10068000003E41414122007F4141413E007F4949B6
:100690004941007F09090901003E41415173007F32
:1006A0000808087F0000417F4100002040413F01D1
:1006B000007F08142241007F40404040007F021C20
:1006C000027F007F0408107F003E4141413E007FD1
:1006D00009090906003E4151215E007F091929469A
:1006E0000026494949320003017F0103003F404091
:1006F000403F001F2040201F003F4038403F006324
:1007000014081463000304780403006159494D433D
:1007100000007F41414100020408102000004141D7
:10072000417F0004020102040040404040400000BC
:1007300003070800002054547840007F28444438C0
:1007400000384444442800384444287F0038545436
:1007500054180000087E09020018A4A49C78007FA9
:10076000080404780000447D4000002040403D0023
:10077000007F102844000000417F4000007C047886
:100780000478007C0804047800384444443800FCB1
:10079000182424180018242418FC007C08040408D9
:1007A0000048545454240004043F4424003C404076
:1007B000207C001C2040201C003C4030403C004479
:1007C00028102844004C9090907C004464544C4481
:1007D00000000836410000000077000000004136AC
:1007E0000800000201020402003C2623263C00000F
:1007F0000000000000404040F0F8F8FF38FFF8F833
:100800003FF8F8FF38FFF8F8F040404000000000E3
:10081000000080C0C0C0800000C0C0800000008018
:10082000C0C000C0C0000080C0C00000000000C008
:10083000C0C0C0C000C0C000000000000000000038
:1008400000000000000000000000000000000000A8
:100850000000000000000000000000000000000098
:100860000000000000000000000000000000C0F0D8
:10087000F8FC3E1E06010000007F4141417F007FE1
:100880004141417F000080C0E07E5B4F5BFEC000C5
:1008900000C000DCD7DEDEDED7DC00C000000000D8
:1008A0000000000000000000000000000000000048
:1008B0000000000000494949FFFFFFFFE0DFBFBF24
:1008C00000BFBFDFE0FFFFFFFF4949490000000014
:1008D000001F3F6060E0BF1F007F7F071E381E07BC
:1008E0007F7F007F7F0E1F3B716000000000007F54
:1008F0007F0C0C0C007E7E007F7E0303007F7E0356
:10090000037E7E03037F7E000F3E703C063C703EFC
:100910000F00327B49493F7E007F7E0303001E3F6C
:1009200069696F2600000000000000000000030F4E
:100930001F3F3C7870600000007F4141417F007F95
:100940004141417F00307B7F7830202030787F3BF1
:100950000003000F7F0F0F0F7F0F00030000000048
:100960000000000000000000000000000000000087
:100970000000000000010101070F0F7F0F7F0F0F24
:100980007E0F0F7F0F7F0F0F070101010000000096
:100990000000000000000101000000000000000055
:1009A0000000000000000000000000000000000047
:1009B0000000000000000000000000000000000037
:1009C0000000000000000000000000000000000027
:1009D0000000000000000000000000000000000017
:1009E0000000000000000000000000000000000007
:1009F00000000000000000000000000000000000F7
:100A000000000000000000000000000000000000E6
:100A100000000000000000000000000000000000D6
:100A20000000000000000000000000000000000EB8
:100A300003550064006F006E003100330000001E9B
:100A40000354006800650020004D00610064002030
:100A5000004E006F006F0064006C00650000000431
:100A600003090409023B00020100A0FA0904000086
:100A700001030101000921110100012240000705C5
:100A8000810308000109040100010300000009219D
:100A900011010001226D00070582032000011201EF
:100AA000000200000008EDFE011701000102000134
:100AB00005010980A101850319012AB70015012646
:100AC000B700950175108100C0050C0901A10185D1
:100AD0000419012AA002150126A0029501751081B2
:100AE00000C005010906A1018506050719E029E7EF
:100AF000150025019508750181020507190029EFE8
:100B00001500250195F075018102050819012905D7
:100B1000950575019102950175039101C0050109C3
:100B200006A101050719E029E715002501950875BB
:100B30000181029501750881010507190029FF153A
:100B40000026FF0095067508810005081901290592
:100B5000950575019102950175039101C00011245D
:100B60001FBECFEFDAE0DEBFCDBF04B603FE18C074
:100B70008091260590912705A0912805B09129051F
:100B80008730904BA740B04B59F410922605109235
:100B900027051092280510922905E0E0F8E3099551
:100BA00011E0A0E0B1E0ECE0F0E602C005900D92AB
:100BB000A23DB107D9F725E0A2EDB1E001C01D9239
:100BC000A632B207E1F70E9415170C94EE2F0C9491
:100BD0000000CF93C62F6091E0017091E1018091F8
:100BE000E2019091E3010E9464088230A9F0833011
:100BF000B9F0813061F0CC2331F081E00E94CF0C5C
:100C000080E0CF91089580E00E94E40CF9CF80E06D
:100C1000CC23A1F382E0F2CF83E0C111EFCFEDCF7F
:100C2000CC23C1F383E0F0CF80E00895CF9360E060
:100C300080E00E94021F60E270E08CE091E00E9480
:100C4000F71F61E080E00E94021F60E270E08CEE1E
:100C500090E00E94F71F62E080E00E94021F60E2C5
:100C600070E08CEC90E00E94F71F63E080E00E944F
:100C7000021F60E270E08CEA90E00E94F71F60E0E3
:100C800087E00E94021F60E08AE791E00E94E51F72
:100C900061E087E00E94021F60E082E791E00E942D
:100CA000E51F6091E0017091E1018091E201909176
:100CB000E3010E9464088130F1F1882349F0823019
:100CC000F1F1833009F43FC060E080E591E003C0BA
:100CD00060E08AE691E00E94E51F62E087E00E9402
:100CE000021F60E087E491E00E94E51F63E087E077
:100CF0000E94021F0E943026C82F8EE391E0C0FFA1
:100D000002C082E491E060E00E94E51F85E391E08B
:100D1000C1FF02C089E391E060E00E94E51F8CE220
:100D200091E0C2FF02C080E391E060E00E94E51F15
:100D300080E0CF91089560E082E691E0CCCF60E062
:100D40008BE591E0C8CF60E085E591E0C4CF9C01E0
:100D50003A9521153F4150F5FC01EE27F170BC0199
:100D600066277270AC01442754709C0122273870AA
:100D700094FF0EC080E1EF2B09F480E0672B09F0AF
:100D80008062452B09F08064232B89F080680895E8
:100D900081E0EF2B09F480E0672B09F08260452B9E
:100DA00009F08460232B19F08860089580E008958D
:100DB000CF93DF93EB010E94A706FE01DF91CF9155
:100DC0000994CF93DF93EC01805E9109089720F09E
:100DD0006FE07CE0209711F463EA79E0CE010E9495
:100DE000D8068C2FDF91CF910C941609CF93DF9307
:100DF000EC010E945C09CE01805E9109089720F009
:100E000066E17CE0209711F46AEA79E0CE01DF9197
:100E1000CF910C94D806CF93DF93EC010E94E106AA
:100E2000C933D10549F42FEF87EE93E0215080407C
:100E30009040E1F700C00000CE01DF91CF910C940B
:100E4000F60681E0089581E008950C942307089543
:100E50000C9427071F93CF93DF9300D000D00F92FD
:100E6000CDB7DEB749835A836B833091D501898131
:100E70009A8131111DC06623B9F02223A9F00E9486
:100E8000D30D182F682F89819A810E94800D698166
:100E90007A81812F0F900F900F900F900F90DF911C
:100EA000CF911F910C94AB140E94AC0D182FEFCF73
:100EB0000E94D30D69817A81EDCFFC01262F4081FC
:100EC00051816281738184810C942A0781E00895A5
:100ED000CF93DF93EC0160E00E945D07BE01DF91DC
:100EE000CF910C9428070C94C5150C94C81508953F
:100EF0000E942D0C0E9477072FEF84E39CE0215085
:100F000080409040E1F700C000000C9416280F9339
:100F10001F93CF93DF938C0161E00E945D07EC018A
:100F2000B8010E942507882309F441C0B801CE0109
:100F30000E946C228823D9F1B801CE010E94C124FD
:100F40008823A9F1B801CE010E948A22882379F171
:100F5000B801CE010E942B24882349F1B801CE01AB
:100F60000E94801D882319F1F8018281882361F095
:100F7000CB35FDE5DF0721F170F4C115ECE5DE07A7
:100F8000A1F0CF3DDC45C9F0C801DF91CF911F91A1
:100F90000F910C942107CC358DE5D807A1F0CD3504
:100FA000DD4591F70E940B12EFCF0E94780780E099
:100FB000DF91CF911F910F9108950E94BF12F7CF3B
:100FC0000E941412E1CF0E941712DECF0E94512717
:100FD0000E94C1080E94FD1B0C9453210E94C4086A
:100FE0000E94C91C0C945527DF92EF92FF920F9339
:100FF0001F93CF93DF93E82FF0E0EC5FFD4FD49089
:10100000282F26952695269530E0F901EC55FD4FC1
:101010000491877010E0082E02C0159507950A9478
:10102000E2F701701127F901EC56FD4FE490F12C25
:10103000082E02C0F594E7940A94E2F791E0E922C1
:10104000FF24F901EC57FD4FC491D0E002C0D595C3
:10105000C7958A95E2F7C170DD270115110519F0D2
:1010600081EE0E941609E114F10419F086EE0E9447
:1010700016098D2D0E949B09EF2819F086EE0E941B
:101080005C09012B19F081EE0E945C09CD2B51F017
:101090008CE2DF91CF911F910F91FF90EF90DF9045
:1010A0000C949B09DF91CF911F910F91FF90EF90CE
:1010B000DF900895982F9F709A50963018F0805DB9
:1010C0000C94F407895AFCCFCF92DF92EF92FF92F3
:1010D0006C01EE24FF2420E0C114D104E104F104EA
:1010E00019F0C701B60120E1C72ED82EE92EFF2442
:1010F000C114D104E104F10419F0285FC701B6015D
:101100006B017C0154E0F694E794D794C7945A9508
:10111000D1F7C114D104E104F10419F02C5FC70127
:10112000B6016B017C0142E0F694E794D794C79432
:101130004A95D1F7C114D104E104F10419F02E5FEE
:10114000C701B6019695879577956795672B682BAC
:10115000692B09F02F5F822FFF90EF90DF90CF90E7
:10116000089508950C94B10881E008950C94B40892
:101170000895CF93C82F0E94B2088C2FCF910C9462
:10118000B60880E00C94B9080E9424260C94B90893
:101190000E9424269091D401981721F08093D401C5
:1011A0000C94B9080895CF93DF93CDB7DEB72B9792
:1011B0000FB6F894DEBF0FBECDBF4F835887698747
:1011C0007A878B8761110E9459111E821D8285E0EA
:1011D000FE013796DE01119601900D928A95E1F796
:1011E0008C819D81892B89F449815A816B817C8115
:1011F0008D819E810E9477102B960FB6F894DEBFEA
:101200000FBECDBFDF91CF91089589819A81892347
:101210008F3F51F3CE0101960E9466078111E4CF02
:10122000EBCFFC01808191810C94150ECF93C82FD8
:10123000882309F43FC08CEF8C0F813AA0F46C2F07
:1012400080910201909103010E948D26882329F04C
:101250008C2F0E9418110E9479118C2F0E9411115D
:10126000CF910C94791180E28C0F883048F4C770CC
:1012700081E001C0880FCA95EAF70E943911F0CFCA
:10128000EBE5EC0FE33040F4F0E0E75AFE4F8081ED
:1012900090E0CF910C944D26C85AC73158F4EC2FEA
:1012A000F0E0EE0FFF1FE55DFE4F80819181CF9151
:1012B0000C946326CF910895882329F19CEF980F11
:1012C000913A20F40E9418110C94791190E2980F31
:1012D000983050F4877091E001C0990F8A95EAF731
:1012E000892F0E943F11F0CF9BE5980F933020F497
:1012F00090E080E00C944D26885A873120F490E0ED
:1013000080E00C94632608951F93CF93DF93182FEA
:10131000EB010E941609209731F4812FDF91CF91C4
:101320001F910C945C098FE99FE00197F1F700C0D1
:1013300000002197F0CF70E060E0893311F460E5A0
:1013400070E00C948409882321F00E9439110C94D8
:1013500079110895882321F00E943F110C9479118E
:101360000895BF92CF92DF92EF92FF920F931F9357
:10137000CF93DF936C01D62FC72FFC011281F5802C
:10138000F2949FE0F9220E942F11E82E8823B9F0F1
:10139000E12E1123A1F08C2F807F803421F080E298
:1013A0008D0F8830D0F08091E80282FD16C082E077
:1013B0000E94DA110E942F1191E0E82EE926BC2E3E
:1013C000B2948FE0B822FBE0FB1508F468C0EB2D67
:1013D000F0E0E051F04D0C944C2FE12CF0CF0C2FAD
:1013E0000F70C07F11F00295007F112399F0002348
:1013F00059F080E28D0F883010F0D11107C0802F96
:101400000E9439110E9479118D2F41C0802F0E94B6
:101410004C11F8CF8D2F0E945C09002309F43FC0C6
:1014200080E28D0F883010F0D11104C0802F0E940F
:101430003F1103C0802F0E9452110E9479112FC0CA
:101440000C2F0F70C07FC03211F00295007FDD239A
:1014500081F0D13009F469C0112309F473C0FF2071
:1014600009F469C0F601858180FFCECF8F70858336
:1014700062C08091E80282FF38C0112359F0002336
:1014800029F0802F0E9439110E94791180E00E947A
:10149000160905C080E00E945C090111C7CFEB2D41
:1014A000E850FF0B349720F40E9424260E94B908CC
:1014B000EE2009F467C10E942B1180FD63C1F60183
:1014C00012820E9425110E94E40CC6010E94E30BC7
:1014D0000E942511DF91CF911F910F91FF90EF9006
:1014E000DF90CF90BF900C94050D112389F0F1107F
:1014F00006C00E945C11802B0E94A309D0CF21E07E
:10150000F212F7CF0E945C11802B0E946211C7CFAC
:10151000F11006C00E946F11802F0E94AA09BFCF50
:1015200031E0F31609F4BBCFF5CF112331F085E09C
:101530008F1508F4B4CF802FDFCF94E09F1508F407
:10154000AECFEACFFF2041F3D93349F4FFEF27EEC6
:1015500033E0F15020403040E1F700C000008D2F13
:101560000E945C099CCF8C2F86958695837069F0CC
:10157000813009F094CF8D2F9C2F9370111102C0F0
:1015800090E080E00E9463268ACF8D2F9C2F93707D
:10159000111102C090E080E00E944D2680CF8C2F78
:1015A000837009F041C011117ACF4D2F42954695B5
:1015B0004770440F440F0D2F0F7010E030E020E013
:1015C000042E04C0000F111F221F331F0A94D2F7EC
:1015D00060E070E0CB01D4FF0FC06FE070E080E00E
:1015E00090E004C0660F771F881F991F4A95D2F7B5
:1015F0006095709580959095C695C695C370602B43
:10160000712B822B932BC23049F058F4C13019F062
:101610000E94960C44CF0E94840C41CF0E94A80CDB
:101620003ECF0E94820C3BCF8695112311F08C2F68
:101630008170882309F433CF4D2F4295469547702A
:10164000440F440F0D2F0F7010E030E020E0042E07
:1016500004C0000F111F221F331F0A94D2F760E04D
:1016600070E0CB01D4FF0FC06FE070E080E090E04D
:1016700004C0660F771F881F991F4A95D2F760959F
:10168000709580959095C695C695C370602B712B0B
:10169000822B932BC23049F058F4C13019F00E94CC
:1016A0005B0DFDCE0E94490DFACE0E946D0DF7CE66
:1016B0000E94BE0CF4CECF70112329F08C2F0E9413
:1016C000E40C8D2F19CF8D2F0E94AA098C2F0E9418
:1016D000050DE5CED23F51F160F4D03FB9F0D13FD6
:1016E00081F0112309F449C0F1108ECE8C2F8F7137
:1016F00021C0D33F11F1D43FA1F78091E80282FFCE
:1017000026C08C2F8F71112311F314C0112349F0BF
:1017100084E08F1508F4C3CE8C2F8F710E94280DA2
:10172000BECE95E09F1508F4BACEF6CF8C2F8F7100
:101730001111CDCF0E94E40CB2CE112329F08C2FD1
:101740008F710E94CF0CABCE0E94CA0CA8CE112381
:1017500049F0CF718C2F0E94E40C63E08C2F0E9423
:10176000BF119DCE81E00E94DA11E1E0EF1508F093
:1017700096CE82E00E94DA1192CEF110E5CE8C2F47
:101780008F71A5CFDF91CF911F910F91FF90EF90B7
:10179000DF90CF90BF9008950F931F93CF93DF9367
:1017A000EC01688179818A810E941F0E8C010E9460
:1017B0007F0D0E94810CB801CE01DF91CF911F9166
:1017C0000F910C94B109CF93DF93EC018B819C8135
:1017D000892B29F08881998189238F3F59F4DF91E2
:1017E000CF910895CE010E94CC0BCE01DF91CF9115
:1017F0000C946807CE010E9487078111F3CF0E94E5
:101800002F11882361F38A81882349F38091E802AC
:1018100082FDE5CF82E0DF91CF910C94DA1188232D
:1018200021F00E944C110C9479110895882321F025
:101830000E9452110C947911089590E080E00E946A
:101840004D2690E080E00E9463260E9459110C947E
:1018500079110E941F110C941D0C0E9449110C94C7
:10186000290C92959F70963091F058F4925F9F707A
:10187000923058F4803F19F030F4883E30F481E023
:1018800008959A5FF4CF843FD1F380E00895883EB5
:10189000B0F3813FD1F7F3CFFC01808191810E94A9
:1018A000150E0C94310CCF93DF9300D000D00F9223
:1018B000CDB7DEB70F900F900F900F900F90DF9184
:1018C000CF910895CF93DF9300D000D000D0CDB753
:1018D000DEB726960FB6F894DEBF0FBECDBFDF9100
:1018E000CF91089508950C94720C0E94730C60932C
:1018F000E4017093E5018093E6019093E7010C9475
:101900001D0C08950C94750C0F931F930091E40126
:101910001091E5012091E6013091E701602B712BD8
:10192000822B932B1F910F910C94750C0F931F9387
:101930000091E4011091E5012091E6013091E70169
:1019400060237123822393231F910F910C94750CB4
:101950000F931F930091E4011091E5012091E6019E
:101960003091E70160277127822793271F910F91FC
:101970000C94750C0C94720C0C94BA0C0E94BC0C58
:101980006093E0017093E1018093E2019093E301A1
:101990000C941D0C60E070E0CB010C94BE0C0F9316
:1019A0001F9341E050E060E070E08A019B0104C0B9
:1019B000000F111F221F331F8A95D2F7C901B801EA
:1019C0001F910F910C94BE0C0F931F9341E050E0B8
:1019D00060E070E004C0440F551F661F771F8A95B2
:1019E000D2F78091E0019091E101A091E201B091E4
:1019F000E3018A019B01082B192B2A2B3B2BC901E0
:101A0000B8011F910F910C94BE0C0F931F9341E0EE
:101A100050E060E070E004C0440F551F661F771F60
:101A20008A95D2F7CB01BA01609570958095909513
:101A30000091E0011091E1012091E2013091E30178
:101A400060237123822393231F910F910C94BE0C6A
:101A50000F931F9341E050E060E070E004C0440F3A
:101A6000551F661F771F8A95D2F78091E0019091EC
:101A7000E101A091E201B091E3018A019B010827F5
:101A800019272A273B27C901B8011F910F910C94F0
:101A9000BE0C0F931F930091E0011091E101209182
:101AA000E2013091E301602B712B822B932B1F916C
:101AB0000F910C94BE0C0F931F930091E0011091B5
:101AC000E1012091E2013091E3016023712382233F
:101AD00093231F910F910C94BE0C0F931F930091B1
:101AE000E0011091E1012091E2013091E3016027D2
:101AF0007127822793271F910F910C94BE0C089594
:101B0000990F990F890F982F977041E001C0440FEA
:101B10009A95EAF786958695869595E0899FF001D6
:101B20001124EA52FE4F30E020E070E05191DF01D5
:101B30001197CB01022E02C0969587950A94E2F781
:101B4000817081958527842385278C932F5F3F4F54
:101B50002530310559F70895990F990F890F982F5E
:101B6000977086958695869525E0829FF0011124D1
:101B7000EA52FE4F50E040E080E0219130E0092E33
:101B800002C0369527950A94E2F721703327042E78
:101B900001C0220F0A94EAF7822B4F5F5F4F453056
:101BA000510559F70895BF92CF92DF92EF92FF92BD
:101BB0000F931F93CF93DF938C01C090E001D090DF
:101BC000E101E090E201F090E3018091E401909165
:101BD000E501A091E601B091E701C82AD92AEA2AD5
:101BE000FB2ACFE1D0E0BC2ED701C6010C2E04C0E9
:101BF000B695A795979587950A94D2F780FD0EC064
:101C0000219788F7B12C8B2DDF91CF911F910F91E8
:101C1000FF90EF90DF90CF90BF900895B8018C2F88
:101C20000E94BF14019761F3EECFCF93DF93EC01D5
:101C30000E94D30DBE01DF91CF910C94BF141F936E
:101C4000CF93DF93EB019091D501992331F0CB0134
:101C5000DF91CF911F910C94150E882379F0CB0161
:101C60000E94D30D182F682FCE010E94800DBE0157
:101C7000812FDF91CF911F910C94BF14CB010E9453
:101C8000AC0D182FF4CF1F93CF93DF93C091E801D1
:101C900016E08091E9018C1304C0DF91CF911F9170
:101CA0000895D0E01C9FF0011D9FF00D1124E65116
:101CB000FE4F4081518162817381848195810E94B0
:101CC000620C2196C770E5CF40911A0250911B0219
:101CD00060911C0270911D0280911E0290911F0262
:101CE0000C94620CFF920F931F93CF93DF9380911C
:101CF0001F02807FD1F480911C028823B1F0809173
:101D0000E8011091E90160911A0270911B02A09103
:101D10001D02B0911E02062F0723C0910001D09131
:101D2000010196E0F92E181306C0DF91CF911F91A3
:101D30000F91FF90089590E0109711F00F3F19F464
:101D400001968770F0CFF89E9001F99E300D112416
:101D5000F901E651FE4F41814713F2CF408146130E
:101D6000EFCF42814111ECCF438154814A1B5B0B81
:101D70004C175D0728F780911F028F708061809358
:101D80001F02F901E151FE4F80818F7080618083D5
:101D90008AE192E00E94E30BDF91CF911F910F91B6
:101DA000FF900C94430EAF92BF92CF92DF92EF92CE
:101DB000FF920F931F93CF93DF93CDB7DEB7619759
:101DC0000FB6F894DEBF0FBECDBF8C0185E0F801E1
:101DD000DE011D9601900D928A95E1F7F801E280EF
:101DE0008AE1C82E82E0D82E60911D0270911E02F9
:101DF0006115710509F45FC190911A0220911B02CF
:101E0000892F82238F3F09F456C140815181A380DD
:101E1000B480F0901C02F501E61BF70BBF01E091C6
:101E20000001F0910101FF2009F4F6C080911F022A
:101E3000382F307F6E177F0708F0AFC0311179C09F
:101E4000FE2C251323C0941321C0E1101FC08F70F6
:101E5000806180931F020E94640EC6010E94E30B02
:101E600080911F02F80185838F2D61960FB6F8943B
:101E7000DEBF0FBECDBFDF91CF911F910F91FF90BD
:101E8000EF90DF90CF90BF90AF900895AB2829F0EE
:101E9000842F85238F3F09F027C180E0F82FF17050
:101EA000DF2E80FF3CC08091E8012091E90136E0FF
:101EB000821315C04D875E878D859E850E94150E05
:101EC000292F22952F702230F0F0243018F59F70C2
:101ED000F1F0F8019581907FD1F4D12C1EC090E0F3
:101EE000389FF001399FF00D1124E651FE4F6181BA
:101EF000651306C06081641303C062816E110FC058
:101F000001968770D5CF9F7011F0882331F3805EE2
:101F1000883018F3C8010E94E30BFD2CA5CFEE20FA
:101F200009F4A2CF80911F02816080931F02F12CDF
:101F30009BCF251306C0941304C0F801EE2009F4CA
:101F400087C0C8010E944C0C882319F1EE2009F1CA
:101F500080911F02803270F020911A0230911B0292
:101F600038872F831986BB86AA868C87CE01079671
:101F70000E94E30B86E0F801AAE1B2E001900D9225
:101F80008A95E1F70E94720E0E94640EFF24F3947A
:101F90006BCFC8010E94E30BF9CF311113C07A2D2A
:101FA000B98AA88A6E2D89890E94530C8AE192E031
:101FB0000E94E30B86E0F60111928A95E9F70E94F0
:101FC000640EB5CF25130FC094130DC0E1100BC0E4
:101FD000F8018583C8010E94E30B86E0F6011192A7
:101FE0008A95E9F741CFC8010E944C0C882389F2F9
:101FF000EE2079F280911F02803208F4BBCF20914D
:102000001A0230911B023A8329831B82BD82AC8263
:102010008E83CE010196ACCF6E177F0708F03EC0CD
:10202000FE2CEE2009F4B5CF25132AC0941328C046
:1020300080911F0280FD1BC0982F907FC1F0F80196
:102040008583903F31F0982F907F905F8F70892B20
:102050008583C8010E94E30B86E0F801AAE1B2E0A3
:1020600001900D928A95E1F70E94640EFDCE86E004
:10207000F801AAE1B2E001900D928A95E1F7F4CE61
:10208000C8010E944C0C811175CF80911F028160A4
:1020900080931F02C8010E94E30BE6CE7A2DB98A15
:1020A000A88A6E2D89890E94530C86E0F601119250
:1020B0008A95E9F7D9CFEE2009F46BCFC8010E94C9
:1020C0004C0CF82E882309F464CF86E0F801AAE1CD
:1020D000B2E001900D928A95E1F78AE192E00E94C8
:1020E00011090E94720EC0CF81E08E25D7CE1F93BA
:1020F000CF93DF93CDB7DEB72C970FB6F894DEBF42
:102100000FBECDBF4F83588769877A878B879C879F
:10211000CE0107960E94D30E882369F08A859B859D
:10212000892B39F04F815885842F85238F3F09F003
:1021300071C016E05FC086E0FE013796DE011196A1
:1021400001900D928A95E1F78A859B85892B89F309
:102150008F81988589238F3F61F32091E90130E0D9
:10216000C9010196877099274091E801481719061F
:1021700071F40E942D0C1092E9011092E80186E0A2
:10218000EAE1F2E0DF011D928A95E9F7D2CF96E00D
:10219000929FD001939FB00D1124A651BE4FFE0116
:1021A000319601900D929A95E1F78093E9010E9492
:1021B000430EBFCF819FC001112486519E4F0E94C4
:1021C000D30E8823E9F0E091E8011E9FF00111246D
:1021D000E651FE4F408151816281738184819581F6
:1021E0000E94620C8091E80190E001968770992727
:1021F0008093E8018091E8019091E9018913DACF99
:102200002C960FB6F894DEBF0FBECDBFDF91CF91F5
:102210001F91089569857A858B859C850E94620C43
:1022200088CF682F80910201909103010C940D27B3
:10223000682F80910201909103010C9418278091DE
:102240000201909103010C9423278091400285950F
:1022500085958595089580914002877008959091A5
:102260004002977081E009F480E008958091630254
:10227000089590916302892B80936302089580955D
:102280009091630298239093630208958093630270
:10229000089510926302089590916202892B8093B1
:1022A0006202089580959091620298239093620251
:1022B0000895109262020895809141020895089550
:1022C0000C945F119091E80292FD08C09091410238
:1022D000981721F0809341020C9460110895809129
:1022E0004102882329F01092410280E00C94601191
:1022F0000895CF93DF93E0910201F0910301809163
:1023000063028083E0910201F0910301808190914A
:102310006202892B808390914102992381F0E091A0
:102320000201F09103018081892B80838091020159
:10233000909103010E94792681110E946F11C09132
:102340000201D091030140E250E060E272E0CE0170
:102350000E94992F892B69F080E2FE01A0E2B2E091
:1023600001900D928A95E1F7CE01DF91CF910C9407
:102370003326DF91CF91089508950C94BC1190916C
:10238000E80292FD10C098E0899F90011124622B11
:10239000609340020E94E40C8091400285958595EF
:1023A00085950C94BD110C94E40C1092400280E0D1
:1023B0000C94BD1190914002809589238093400236
:1023C000282F277091F4282F082E000C330B92171A
:1023D000130659F09091E80292FD07C08595859506
:1023E00085950E94050D0C94D51108959091E802F1
:1023F00092FB222720F9281769F080FB92F990932D
:10240000E8028091E7029091E8020E943B1282E08C
:102410000C94DA1108958091E80282FB882780F9F4
:1024200091E089270C94F61181E00C94F61180E07C
:102430000C94F61190E080E00E94B42F21E0893ED8
:102440009E4F09F020E0822F089582E090E00C94E6
:10245000A62F83E090E00C94A62FCF9384E090E029
:102460000E94A62FC82F82E290E00E94A62F982FEC
:102470008C2FCF910895CF93C92F682F84E090E0DF
:102480000E94BA2F6C2F82E290E0CF910C94BA2F69
:10249000AB01BC018FE090E00C94CC2FAB01BC01F0
:1024A00083E190E00C94CC2F60E070E0CB010C94C1
:1024B0004E1260E070E0CB010E9448120C9454125E
:1024C00069EE7EEF90E080E00E94D82F60E082E02D
:1024D00090E00E94BA2F60E083E090E00E94BA2F63
:1024E0001092E4011092E5011092E6011092E701CA
:1024F00060E084E090E00E94BA2F60E082E290E029
:102500000E94BA2F60E085E090E00E94BA2F60E060
:1025100086E090E00E94BA2F6FEF87E090E00E9483
:10252000BA2F40E050E0BA0188E090E00E94CC2F42
:1025300060E08DE090E00E94BA2F40E050E0BA01E8
:1025400088E190E00E94CC2F60E087E190E00E945B
:10255000BA2F40E050E0BA018CE190E00E94CC2F0D
:1025600070E060E080E290E00E94D82F40E050E010
:10257000BA0188E190E00E94CC2F0C9459120C947F
:102580006012682F8EE090E00C94BA2F0E94D7273B
:102590006093700270937102809372029093730241
:1025A00060936C0270936D0280936E0290936F0241
:1025B00008950E94D72760937002709371028093F0
:1025C0007202909373026093680270936902809321
:1025D0006A0290936B02089585B7806885BF85B7BE
:1025E000806885BF0895089508950C94F4120895A5
:1025F0000C94F7120E94EC128DE995E10E941A26C4
:102600000E94F3120C94F51281E008950C940413C7
:10261000089508950E9408130C9409130E94A015B0
:102620000E94B8080C94C4210E94C2270E9476160A
:102630000E940E1380E00E94BA1E0E948E1C0E940F
:10264000D0230C94F8129F92AF92BF92CF92DF9258
:10265000EF92FF920F931F93CF93DF93CDB7DEB727
:102660002A970FB6F894DEBF0FBECDBF0E948B161F
:10267000C82E81110E94C61284E6A82E82E0B82ED0
:1026800010E000E0902E802F0E94CA15E82EF50180
:10269000F1905F01F81609F445C08091740281FD44
:1026A0000E94D0158F2D8E25D12CFF24F394982FC6
:1026B0009F2199F10E940613882399F0DE829F8260
:1026C000EF2081E009F480E088870E94CB278160B9
:1026D000782F9A8789874E815F8168858A850E94D5
:1026E000D308F801EC59FD4F8081F826F08281E093
:1026F000C11001C080E02A960FB6F894DEBF0FBE6D
:10270000CDBFDF91CF911F910F91FF90EF90DF90A0
:10271000CF90BF90AF909F900895D394FF0CF4E0BA
:10272000DF12C5CF0F5F1F4F0430110509F0AACF8C
:102730008FEF89838A831B820E94CB278160782F49
:102740009D838C8349815A816B818D810E94D3083E
:10275000CECFCF93DF930E942313D82F0E94D21C99
:102760000E94E323C82F81110E94D9120E94702178
:10277000D11101C0C1110E943720DF91CF910C947B
:10278000C808CF93DF930E94C314EC01811522E5A2
:102790009207E8F5811531E5930708F0ACC0883E53
:1027A000910510F5803E910570F5883A910570F419
:1027B000853A910508F078C08130910521F10097A4
:1027C00011F1049700F5D0E0C0E01DC08F3B9105EA
:1027D000D0F7C85AD0E0CC0FDD1FC45ADE4F0990A5
:1027E000D881C02DD4640FC0811540E5940708F04E
:1027F00066C0C11580E4D80708F05EC0CE019A9586
:1028000081159F4100F7CE01DF91CF910895811589
:1028100036E5930718F5811545E5940708F083C060
:10282000C11584E5D80708F079C09C2F9695969538
:102830009E0123703327C115D34508F461C0C1E060
:10284000D0E002C0CC0FDD1F2A95E2F730E2939F63
:10285000C0011124C82BD92BDA68D5CFC1158AE560
:10286000D80778F4C11599E5D90708F066C0C115F5
:1028700028E5D20708F4A7CFDC2FCC27C06FD06A99
:10288000C2CFCE0190568115904208F09CCF8D2F7B
:102890008F710E945A1590E0982F882788279F7182
:1028A0009C012C2BE90147C0C55AD0E0C657DE4F2A
:1028B000C881D0E0D064A7CFDF70D06AA4CFE4E0B5
:1028C00096958795EA95E1F783702C2F26952695A6
:1028D000237040E2249F90011124382B8C2F8370A9
:1028E000C1E0D0E002C0CC0FDD1F8A95E2F7C22B19
:1028F000D32BDC6888CFD82FCC27C16FD06A83CF89
:10290000C1E0D0E002C0CC0FDD1F2A95E2F720E243
:10291000929FC0011124C82BD92BEBCFDC2FCC27E1
:10292000C46FD06A70CF0E945A15C82FD0E0DC2F38
:10293000CC27CC27DF71D06266CF8C2F8F700E949E
:102940005A1534E0D695C7953A95E1F7CF709C2F8C
:10295000EC01D06958CF24E0829FC0011124FC0112
:10296000E70FF11DEE0FFF1FEE0FFF1FE60FF11D2A
:10297000EE0FFF1FEC57FE4F8591949108950E9432
:10298000AB140C94C11382389105B1F1B0F48133CA
:10299000910509F475C048F48932910509F469C0BC
:1029A0008A32910509F473C008958533910509F4BD
:1029B00059C08933910501F10895833E9105A9F12C
:1029C00038F4803E9105F9F0823E910549F1089571
:1029D000863E9105A9F1873E9105C9F1843E910596
:1029E00019F52091E80221FF1FC08091E70284FDC4
:1029F00014C087EE90E008952091E7022370A1F0C3
:102A000080EE90E008952091E70220FD47C03091CC
:102A1000E80230FF09C024FF44C090E080E004C019
:102A20002091E70222FDF7CF08952091E70222FDD1
:102A30003BC03091E80230FDE3CF24FFF5CFEDCF6E
:102A40002091E70223FFF0CF24FDE7CFD2CF2091E2
:102A5000E70223FD2CC03091E80231FFEECF84EE77
:102A600090E008952091E70225FFDECF89E290E013
:102A700008952091E70225FFD7CF85E390E00895E0
:102A80002091E70226FFD0CF8AE290E008952091BE
:102A9000E70226FFC9CF81E390E0089589E390E043
:102AA000089583EE90E0089582EE90E0089586EE1A
:102AB00090E008959091E70292FF06C0282F2871B8
:102AC0002830F9F4877F846093FF06C0282F28718F
:102AD0002831F1F4877E84612091E80220FF06C04E
:102AE000382F38713830D9F4877F816021FF06C0D4
:102AF000282F28712831D1F4877E816194FD877E4B
:102B00000895282F24712430F9F68B7F8860DCCF5C
:102B1000282F2471243101F78B7E8861DDCF382F77
:102B20003171313019F78E7F8860E0CF282F217105
:102B3000213121F78E7E8861E1CF80E008950895EC
:102B40000E941A12811102C00E94BF120E94251217
:102B5000809374020E942D129093E8028093E70202
:102B60000E949F150E942912682F70E090E080E07B
:102B70000E94820C6091E0017091E1018091E2017C
:102B80009091E3010C94BC0C08950C94C415089525
:102B90000C94C715E82FF0E0E351FD4F80810895B4
:102BA000089580EA8A95F1F7089500C008950C947D
:102BB000D115F894E82FE295EF70F0E031A1282FBD
:102BC0002F7081E090E001C0880F2A95EAF7982FD6
:102BD0009095932391A392A1892B82A37894089531
:102BE00080EF0E94D91585EF0E94D91584EF0E94CD
:102BF000D91586EF0E94D91587EF0E94D91581EF6C
:102C00000E94D91586E90E94D91587E90C94D91537
:102C1000CF92DF92EF92FF920F931F93CF93DF93A8
:102C20007C01162F042FC62FD0E0CE0183579E4F74
:102C30006C01EC0128812F3F09F44FC0F894E22F7A
:102C4000E295EF70F0E031A12F7081E090E001C0DB
:102C5000880F2A95EAF7932F982B91A392A180953C
:102C6000892382A378940E94D515A1E9B1E0F701E8
:102C700045E951E0F12C602F60959D9180819F3F47
:102C800049F1292F22952F7030E0E90128A130E089
:102C90009F7002C0359527959A95E2F720FD1AC0DE
:102CA000802B8083FF24F39431964A175B0729F722
:102CB000F60180818F3F11F00E94D9156F2D812F71
:102CC000DF91CF911F910F91FF90EF90DF90CF9008
:102CD0000C94D71586238083E7CFDF91CF911F9186
:102CE0000F91FF90EF90DF90CF9008950E94F01524
:102CF00084E0EDEEF2E0DF01982F1D929A95E9F75E
:102D0000E9EEF2E0DF011D928A95E9F784E00E9486
:102D1000D2160C9473070F931F93CF93DF9300D0B9
:102D200000D0CDB7DEB719821A821B821C8210E058
:102D300001E0402F612FCE0101960E9408161F5F0F
:102D4000000F1430B1F744E050E0BE016F5F7F4FD9
:102D500089EE92E00E94992F11E0009709F410E0AB
:102D6000892B61F089819A81AB81BC818093E902D2
:102D70009093EA02A093EB02B093EC02212F44E07F
:102D80006DEE72E089EE92E00E94D3160E94750704
:102D9000812F0F900F900F900F90DF91CF911F9187
:102DA0000F9108950895FF920F931F93CF93DF9390
:102DB000F82E092F162FD72FC42F222349F081E098
:102DC000809377020E94CB279093760280937502BE
:102DD000809177028823A1F080917502909176020C
:102DE0000E94E327059760F0EF2DF02FA12FBD2F54
:102DF000CE0FDF2FD11DEC17FD0741F410927702A3
:102E0000DF91CF911F910F91FF90089581918D9344
:102E1000F2CF0E94BC290E9414130C94C8290E946E
:102E2000CC290E94A9130C94E6290E946B270E94CA
:102E3000A3290E94FA120E9409170E940F170E94EC
:102E40000A13FBCFEF92FF920F931F93CF93DF9361
:102E5000EB01E82FD11110C0442321F0F0E0E5533D
:102E6000FC4FE4916E2F7E2F8E2FDF91CF911F911B
:102E70000F91FF90EF9008950D2F10E0282F30E074
:102E8000442329F025533C4FF901249130E0F6E02A
:102E9000CF9FC0011124EFEFF0E0BF010E94022F8D
:102EA000AB018C2F90E0880F991FA5E5A49FB0017E
:102EB000A59F700D1124861B970B982F990F980FC3
:102EC000BF01601B710B629FD001639FB00D729FA9
:102ED000B00D11248B2F9D9FB0011124672F7727F0
:102EE000EF01C61BD70BBE01629FE001639FD00DAF
:102EF000729FD00D11247F01E91AF108E09EB00104
:102F0000E19E700DF09E700D1124672F7727E61B50
:102F1000F70BE29F8001E39F100DF29F100D11242B
:102F2000E12F722F4230510599F048F441155105B7
:102F300069F04130510581F0EB2F8D2F07C04430EF
:102F4000510569F080F046305105B1F76E2F8DCFF5
:102F5000E22F7B2F812FFACFE22F7D2FF7CFEB2FA0
:102F6000822F712FF3CF7B2F822FED2FEFCF41E0F8
:102F70000C94221708950C94B717CF93DF93762FF4
:102F8000E901682F842F0E94BB17798368838A83A5
:102F9000DF91CF9108958091F102982F9E7F29F4BF
:102FA000817082608093F10208958A34E8F3817021
:102FB0008864F8CF88E090E00C94AE2FCF92DF9237
:102FC000EF92FF926B017C010E94CB17B701A60123
:102FD00088E090E0FF90EF90DF90CF900C94CC2FA2
:102FE000E1EFF2E083E1808311828FEF82838383BC
:102FF00083E0848360817181828193810C94DE17E8
:103000008091F10280FF02C08695089580E00895C6
:103010009091F502933018F49F5F9093F502882306
:1030200051F06091F1027091F2028091F30290915F
:10303000F4020C94DE17089581E00C940818909126
:10304000F502992319F091509093F502882351F0DD
:103050006091F1027091F2028091F3029091F4027A
:103060000C94DE17089581E00C941F1870E00C9406
:10307000481E609108018091F10280FF0AC0809192
:10308000070123E0829FC00111248A509D4F0C94B8
:1030900036188091090190910A0123E0829FF00186
:1030A0001124EA50FD4F891750F7118210821282C5
:1030B0008F5F3396F8CF9091F10290FF14C09091FA
:1030C000090120910A0133E0939FF0011124EA5095
:1030D000FD4F921710F00C9439188183608342835E
:1030E0009F5F3396F6CF0895CF93DF9300D00F9272
:1030F000CDB7DEB79091F10290FF0AC09E012F5F1D
:103100003F4F0E94BD174B8169818A810E945B18E5
:103110000F900F900F90DF91CF910895CF93DF9391
:10312000EC01EC81F0E0EA53FD4F4491E1EFF2E075
:10313000628181810E9474188C818F5F8C83DF9102
:10314000CF910895CF93DF93EC01E1EFF2E043815B
:1031500062818C810E9474188C818F5F8C83DF91D7
:10316000CF9108950F931F93CF93DF9300D00F92C9
:10317000CDB7DEB78C018091780281110AC09E0123
:103180002F5F3F4F4FEF6FEF0E94BD178A818093F3
:103190007802F8016481613069F08091780240E042
:1031A000662361F040E0623011F44091780280E0E3
:1031B00060E004C06091780240E080E00E945B180B
:1031C000F801848190E0019663E070E00E94162F80
:1031D00084830F900F900F90DF91CF911F910F91EB
:1031E0000895AF92BF92CF92DF92EF92FF920F932A
:1031F0001F93CF93DF9300D00F92CDB7DEB7182F78
:10320000F62E042FE22E9091F10290FF29C0E92FB3
:10321000E695AE2FB0E0AB56BE4F8C918093840202
:103220009E7F923059F59E012F5F3F4F812F0E9464
:10323000BD174B8169818A810E945B181093F2024D
:10324000F092F3020093F402EE2051F06091F1024B
:103250007091F2028091F3029091F4020E94DE17C5
:103260000F900F900F90DF91CF911F910F91FF90D2
:10327000EF90DF90CF90BF90AF900895823019F417
:103280000091F402DBCF863019F41091F202D6CF10
:103290008930D9F3893191F6E9518E2F8170D82E7A
:1032A000E695F0E0EA53FC4FA590B490C12CBB2406
:1032B00060910B01C61618F00E943918BFCF2C2D53
:1032C00030E0A29EC001A39E900DB29E900D1124ED
:1032D00070E00E94022F812FD11013C0860F409101
:1032E0000901420F532F511D9A01220F331F240F42
:1032F000351F2A503D4F402F6F2D0E94BD17C3949C
:10330000D7CF861BECCFE1EFF2E09181282F4381EC
:10331000628188E0890F0C94F11881E00C94831984
:10332000E1EFF2E09181282F4381628188EF890FDC
:103330000C94F11881E00C949019E1EFF2E06281B5
:1033400021E1620F08F46FEF282F438181810C94F3
:10335000F11881E00C949D19E1EFF2E0628121E126
:10336000621B08F460E0282F438181810C94F118DE
:1033700081E00C94AC19E1EFF2E0438121E1420FCE
:1033800008F44FEF282F628181810C94F11881E0BD
:103390000C94BB19E1EFF2E0438121E1421B08F4F8
:1033A00040E0282F628181810C94F11881E00C9417
:1033B000CA1920E00C94F118EF92FF921F93CF935B
:1033C000DF93EC0110E0EE24EA94F12C60910B0104
:1033D000161770F00E9439189A818C8190FF27C0CF
:1033E0008F5F8C83DF91CF911F91FF90EF900895B5
:1033F00020910901422F410F5527551FCA019A01FB
:10340000220F331F280F391F2A503D4F70E0C7018C
:103410000E94162F962F8C814091F4026091F30246
:10342000199F800D11240E94BD171F5FCFCF8150BF
:10343000D8CFAF92BF92CF92DF92EF92FF920F93CD
:103440001F93CF93DF93FC0182810FEF80FF01E098
:1034500010E046E0A42E80910B011817C8F00E94DE
:10346000391880917A02013009F055C0811102C0EB
:1034700080910B01815080937A02DF91CF911F914F
:103480000F91FF90EF90DF90CF90BF90AF90089595
:10349000C0910901C12ED12CCC0DDD2DD11DCE0145
:1034A000880F991FC80FD91FCA50DD4F1982188283
:1034B0001A8234E0E32EF12CB12C80917A028B0D2C
:1034C00087301CF16A2D0E94F42E892F082E000CE3
:1034D000990BC816D90691F48091F4028E9DA00133
:1034E0008F9D500D112455954795559547959E01F3
:1034F0006091F3028091F2020E94BD17B00EF1E0DC
:10350000EF1AF108D1F61F5FA6CF87FFDFCF9091AA
:103510000B01890FDBCF90E0019660910B0170E009
:103520000E94162FA8CF0F931F93CF93DF93809104
:10353000090190910A0123E0829FF0011124EA50D1
:10354000FD4F891740F1C0E0D3E060910B01C61731
:1035500040F10E9439182091050180917902820F73
:103560008093790290910601920F909306011916AB
:1035700054F4082E000C990B40910B014150550B4F
:10358000841795071CF0219520930501DF91CF91B9
:103590001F910F9108951182108212828F5F3396CE
:1035A000D0CF0C2F10E070E0C8010E94162F2091A0
:1035B0000901820F482F50E020917902022E000C61
:1035C000330B02171307BCF020910601022E000CEA
:1035D000330B201731077CF08D9F900111242A5066
:1035E0003D4F4091F4026091F3028091F2020E94FB
:1035F000BD17CF5FAACFFA01EE0FFF1FE40FF51F33
:10360000EA50FD4F118210821282F3CF8F929F9267
:10361000AF92BF92CF92DF92EF92FF920F931F93E0
:10362000CF93DF93EC014C81042F10E09801D80177
:103630000E945A2F9B01AC010E94702F4B015C012C
:10364000E0E2F0E0E01BF10BA5E5B0E0AC019B018E
:103650000E94702F6B017C019F01DF010E94522F9D
:103660009B01AC010E947B2F9B01AC01280D391DF1
:103670004A1D5B1DC701B6010E942A2FF22E822F20
:1036800090E039E23F1560F143E0249F900111245E
:1036900035952795122F109500E085E5E82EEF1857
:1036A00080910B01081758F10E9439189C8181E024
:1036B000992319F0903219F48FEF809304018091CF
:1036C0000401890F8C83DF91CF911F910F91FF909F
:1036D000EF90DF90CF90BF90AF909F908F90089524
:1036E00025E530E0B901681B790B9B01220F331FE0
:1036F000260F371F37FFCCCF2F5F3F4FC9CF8E2DFF
:1037000001FD8F2D20910901622F600F7727771F10
:103710009B01220F331F260F371F2A503D4F412F89
:103720006091F3020E94BD170F5FBACF0F931F93F2
:10373000CF93DF93EC0110E000E090910B01901724
:10374000110609F06CF40E9439188C8190E0019602
:10375000817099278C83DF91CF911F910F910895EC
:1037600020910901A801420F511D9A01220F331F18
:10377000240F351F2A503D4F4C816091F3028091F8
:10378000F20296959017110651F04CF0442349F03F
:103790004091F4020E94BD170F5F1F4FCECF44230C
:1037A000B9F340E0F7CFE1EFF2E080818E7F8083D4
:1037B00060817181828193810E94DE17109285025F
:1037C0002FEF80E792E0215080409040E1F700C069
:1037D00000000C943918E1EFF2E080818E7F808345
:1037E000109285022FEF80E792E0215080409040B8
:1037F000E1F700C000000C94391810928502809106
:10380000820281110AC081E0809382028091F102DC
:103810008170809381020C94EB1B08956091F102FA
:10382000669570E04BE050E08CE091E00E948C2FB8
:10383000892B19F481E0809385020E94CB27909315
:103840007C0280937B0208959091F10290FF35C035
:103850009170811128C092609093F102662351F01B
:103860006091F1027091F2028091F3029091F40262
:103870000E94DE176091F102669570E04BE050E027
:103880008CE091E00E948C2F892BA1F01092850290
:1038900081E080937E024091F4026091F302809176
:1038A000F2020C94D919853210F09864D5CF880FA4
:1038B000982BD2CF0E940E1CEBCF0895682F9091C9
:1038C000F102969581E0890F853208F081E00C9431
:1038D000241C81E00C945E1C682F9091F102969557
:1038E0008FEF890F09F484E20C94241C81E00C947E
:1038F0006C1C61E00C94241CE1EFF2E0808181609B
:10390000808386950C94791C8091F10280FD0C9443
:10391000D31B0C947C1C60E00C94241C80918302CB
:1039200081112EC00E941A12811104C00E94BF1280
:103930000E94F0170E94DA176093F1027093F2026E
:103940008093F3029093F4026E7F61F40E94F0176B
:103950000E94DA176093F1027093F2028093F302EF
:103960009093F4020E94CB17109285028091F1028D
:1039700080FF03C086950E948B1C81E080938302A8
:103980000895E1EFF2E080818160808386950C9458
:103990008B1C109282028091810281110E94C11CB5
:1039A0000C940E1C0F931F93CF93DF93809185028D
:1039B000882309F486C080918402E091F102E695A3
:1039C000E81BE0937D02823091F5F0E0EE53FD4F6D
:1039D000E491CE2FD0E00EE818E180917E0288239A
:1039E00061F010927E020E94CB2790937C0280931C
:1039F0007B021092800210927F020E94CB27E091FE
:103A00007B02F0917C028E1B9F0B8F3F9F4708F03B
:103A100058C0EC0FFD1FF0937C02E0937B028BE714
:103A200092E0F801DF91CF911F910F9109948630B8
:103A300049F4F0E0E154FD4FE491CE2FD0E002EAEA
:103A400018E1CBCF893051F4E695F0E0E454FD4F16
:103A5000E491CE2FD0E00CED19E1BFCF8F3051F4BF
:103A6000E695F0E0E754FD4FE491CE2FD0E009E178
:103A70001AE1B3CF853149F4F0E0EA54FD4FE49107
:103A8000CE2FD0E003E91AE1A8CFC8E2D0E006E0EB
:103A90001BE1883109F4A1CF833239F4E4EBF2E081
:103AA000C591D49102EB18E198CFC4EFD1E006E9BB
:103AB0001BE1843209F491CFC0EDD7E00AEB17E1A6
:103AC0008CCFDF91CF911F910F910895FA01811151
:103AD00001C0FB010994CF93DF93C82FD62F0E941A
:103AE00000188C1740F00E9400188D1720F4DF9109
:103AF000CF910C94691C8C2FDF91CF910C94791C81
:103B00001F93CF93DF93EC01FB01128111117EC053
:103B10000E9436118272CD3CFCE5DF0709F49CC09F
:103B200008F041C0C73CECE5DE0709F481C0D8F4D9
:103B3000C43C9CE5D90709F471C030F4C33CDC45B2
:103B400009F469C011E062C0C53C9CE5D90709F4DD
:103B50006AC04AE959E16DE879E1C63CDC4591F774
:103B60000E94661D53C0CA3CFCE5DF0709F46AC029
:103B700068F4C83CECE5DE0709F45FC049EA59E1A6
:103B800068EB79E1C93CDC4559F3DCCFCB3C9CE5E3
:103B9000D90709F45CC043E358E16CE178E1CC3C1F
:103BA000DC45F1F2CFCFC23DFCE5DF0709F465C08B
:103BB00098F4CF3C9CE5D90709F457C008F451C0EC
:103BC000C03DFCE5DF0709F455C0C13DDC4509F007
:103BD000B9CF6EE089E04BC0C53D9CE5D90709F43B
:103BE00052C058F4C33DFCE5DF0709F449C0C43DA9
:103BF000DC4509F0A7CF88E135C0C63D9CE5D90773
:103C000009F444C0CE35DD4509F09CCF812FDF910A
:103C1000CF911F9108950E94841CF8CF46E75CE184
:103C200069E67CE19DCF49E65CE166E77CE198CFFF
:103C30004DE859E16AE979E193CF48EB59E169EA46
:103C400079E18ECF46ED59E167EC79E189CF47EC18
:103C500059E166ED79E184CF4CE158E163E378E125
:103C60007FCF81E00E94791CD1CF65E082E00E9485
:103C70006B1DCCCF68E086E0FACF64E18FE0F7CF30
:103C800067E185E1F4CF62E289E1F1CF83E2EACF37
:103C9000279A45B14F7755B15068EFB7F8949B011B
:103CA000220F331F260F371F280F391F28173907F8
:103CB00041F4EFBF8FE594E00197F1F700C00000F9
:103CC0000895DC016D91CD0178E055B9000000C088
:103CD00067FF45B9660F000000C000C000C045B9CD
:103CE00000C07A9591F7E2CFCF92DF92EF92FF92E8
:103CF0000F931F93CF93DF936C017B0164E670E019
:103D000088E70E941925EC0197FD12C010E000E041
:103D1000F601E00FF11F849164E670E00E949325A4
:103D2000EC01892B29F40F5F1F4F0E151F0581F73A
:103D30000E941626CE01DF91CF911F910F91FF9027
:103D4000EF90DF90CF9008950895E8E0F3E080E0F1
:103D500092E0DF019C011D9221503040E1F7F09389
:103D60000D05E0930C058FEF9FEF9093B2028093C7
:103D7000B10208950E94A41E0E9414068093AD0211
:103D800080FD0FC080E88093AC020E9413256DE097
:103D900070E082EE94E00E94741E892B21F080E096
:103DA000089580E2F0CF8091AD0263E070E081FD84
:103DB00026C08FED94E00E94741E892B81F76DE080
:103DC00070E08FEC94E00E94741E892B41F70E94F2
:103DD000D727605A75418F4F9F4F609308057093A6
:103DE000090580930A0590930B050E94A51E81E0AA
:103DF0008093B0028093AF021092AE0208958CEDD2
:103E000094E0D9CF2091AC0236E0839FC001112409
:103E1000629F800D911D1124811522E0920714F0FC
:103E200090E080E0885F9C4F90930D0580930C0597
:103E3000089520910C0530910D052250334040919A
:103E4000AC02642F70E0C9010E94022F481B46306B
:103E500010F4240F311D211582E0380710F030E0F6
:103E600020E0285F3C4F30930D0520930C0508950A
:103E70001F93CF93DF93162F8A3031F481E0DF91C7
:103E8000CF911F910C94B21F8D3011F480E0F7CFC9
:103E9000C0910C05D0910D0596E0FE01A6E8B2E0B8
:103EA00001900D929A95E1F7803EC8F086E0FE0100
:103EB00011928A95E9F711111EC0C0910C05D0919D
:103EC0000D0546E050E0BE0186E892E00E94992F81
:103ED000892BF9F4DF91CF911F910C94191FF6E013
:103EE0008F9FB001112461517B4F46E050E0CE011D
:103EF0000E94832FE0CFE0910C05F0910D059F010A
:103F00002A5F3F4F2E173F07C1F280818095819332
:103F1000F9CFC850D340CE0125E0969587952A95D4
:103F2000E1F721E030E0A90102C0440F551F8A9556
:103F3000E2F7CA014091B1025091B202842B952B55
:103F4000259645E0D695C7954A95E1F702C0220F20
:103F5000331FCA95E2F7822B932B9093B202809382
:103F6000B102B8CFCF93382FE0910C05F0910D0539
:103F7000E850F3402091AC02622F70E0CF010E9424
:103F8000022F281B822F332369F066E00E94E82E5F
:103F9000C82FC15010F4CF91089560E080E20E94D4
:103FA000381FF7CF9F01280F311D2115324018F01F
:103FB00080E0F0E0E0E08E0F9F2F911D885F9C4F26
:103FC00090930D0580930C05E6CF1F93CF93DF935D
:103FD000EC01162FFE018491811104C0DF91CF9175
:103FE0001F910895612F0E94381F2196F3CFCF9320
:103FF000DF9320910C0530910D0528503340A90125
:10400000460F571F4130524020F060E072E0621BC3
:10401000730B4091B1025091B202FC01C901620FD1
:10402000731FC1E0D0E08617970738F05093B202B3
:104030004093B102DF91CF9108952491DC01A85FF4
:10404000BC4F3C91321781F02C939C01A5E0369532
:104050002795AA95E1F7DE0102C0AA0FBB1F2A959A
:10406000E2F79D014A2B532B01963196DCCF8091CC
:10407000B002811103C08091AF0208950E94D7273A
:10408000605A75418F4F9F4F6093080570930905E3
:1040900080930A0590930B058091AF028111EBCFBD
:1040A00062E070E08DEC94E00E94741E892B19F799
:1040B00081E08093AF02DFCF2F923F925F926F92A9
:1040C0007F928F929F92AF92BF92CF92DF92EF92A8
:1040D000FF920F931F93CF93DF938091B0028823B9
:1040E00069F02091B1023091B2022115310531F011
:1040F0008091AE0261E070E0882399F0DF91CF916A
:104100001F910F91FF90EF90DF90CF90BF90AF90F5
:104110009F908F907F906F905F903F902F90089529
:104120008F5F082F10E01B01082E02C0220C331CE9
:104130000A94E2F7A90142215321452B89F390917A
:10414000AD0290FD44C08295880F8076809319015E
:104150009801369527953695279520931C01815E09
:1041600080931A0110921D0124E630E047E050E0F0
:1041700067E171E088E70E94C225892B09F0BECF74
:10418000A80125E0440F551F2A95E1F78091AD0263
:1041900080FD2BC0485F5C4F04E610E020E230E079
:1041A00060E488E70E94E925892B09F0A7CF0E94E7
:1041B0003720E101C095D0958091B1029091B20273
:1041C000C823D923D093B202C093B10297CF880FEE
:1041D000880F880F8093190110921C01895F8093CA
:1041E0001A0183E080931D01BFCFECE8F2E080E28A
:1041F000DF011D928A95E9F7AEEBB1E00AEB11E021
:1042000082ECC82E81E0D82E97E0592E7724739443
:104210008D91E80129918E01240F352F311D285FE2
:104220003C4FE82FF0E0E457FD4F90E080E0652C34
:10423000681A872C082E01C0880C0A94EAF77901C5
:10424000A12CE701B9907E01B820662D6A1967702C
:10425000962E062E000C770BDB2D01C0DD0F9A94F5
:10426000EAF77195619571096770772701C0B69477
:104270006A95EAF7BD2A6081962E9B289082A394C6
:1042800068E0A612DECF019631968830910579F666
:10429000CA16DB0609F0BCCF04E610E020E230E0ED
:1042A0004CE852E07DCF8091AF029091B002911125
:1042B00003C091E089270895882369F062E070E0E7
:1042C0008BEC94E00E94741E892B19F08091AF0250
:1042D00008951092AF028091AF02EBCF0C941606B6
:1042E0000F931F938091B002882319F160E080E062
:1042F0000E94021F0E946E210E945C208091AF02EA
:104300008823B9F00E94D72700910805109109056C
:1043100020910A0530910B05601B710B820B930BEA
:104320006F3F7F4F8F4F9F4720F41F910F910C9449
:1043300053211F910F910895CF93DF93EC0197FFC5
:104340000CC0FB018281882341F00E94DA21CE015A
:104350009F770E9451220E94292281E0DF91CF9114
:10436000089590910F05923069F48A3048F490E0F6
:1043700009966AE070E00E94162F875A0C949B09F8
:104380008650FCCF0C945A088CE090E00E94A62F37
:1043900090E0B0E0A0E080930F0590931005A0930B
:1043A0001105B0931205089560910F058CE090E01F
:1043B0000C94BA2F0E943026869581708093140544
:1043C0000E943026817080930E0580910F05813008
:1043D00039F480911405882319F089E30E949B0920
:1043E0000E943611809313050E94491180910F0598
:1043F000813089F0882359F0823091F0843021F1A6
:104400008FE39CE90197F1F700C00000089582EE68
:104410000E941609F5CF88E193E00E940B07F0CFC8
:1044200080910E05811103C083E50E949B0982EEF5
:104430000E9416098FE39CE90197F1F700C0000084
:1044400087E50E949B09DCCF86EE0E949B0988E1EC
:10445000F8CF80910F05813071F0882341F08230D0
:10446000A9F08430E1F0809113050C94461182EE9E
:104470000E945C09F8CF8CE20E949B098091140590
:10448000882389F389E30E949B09EDCF82EE0E9485
:104490005C0980910E058111E6CF83E5F4CF88E2B7
:1044A000F2CF0F931F93CF93DF938C01CCE0D0E03A
:1044B000C8010C2E02C0969587950A94E2F78F707A
:1044C0000E94B1212497CC3F8FEFD80789F7DF9165
:1044D000CF911F910F9108950F931F93CF93DF9367
:1044E000EC018B01FB018281882361F00E9436116F
:1044F000CE01825E9C458530910520F480930F05A6
:104500000E94D421B801CE01DF91CF911F910F916C
:104510000C949C21CF93DF93EC01FB0182818823D3
:1045200009F433C1C430FDE5DF07C0F5CB3F9CE59E
:10453000D90730F49E0122503C4524313105B0F5B5
:104540000E942D129093E8028093E702C1318CE51E
:10455000D80709F4EEC008F069C0C930ECE5DE0701
:1045600009F4D5C0C8F5C5308CE5D80709F4C7C033
:1045700000F5C330ECE5DE0709F4B9C008F0BBC0B4
:10458000C230DC4509F4ADC08091E7029091E802A9
:104590000E943B120E942D0C80E008C0C236EDE55F
:1045A000DE0771F2C63AFDE5DF0751F2DF91CF91E8
:1045B00008958091E7028062C7309CE5D90709F42D
:1045C00093C08091E7028061C830DC4508F48CC05C
:1045D0008091E702806488C08091E7028B7FCD30B4
:1045E000FCE5DF0709F480C098F48091E7028E7F34
:1045F000CB309CE5D90709F477C08091E7028C6045
:10460000CC30DC4508F470C08091E7028D7F6CC02F
:104610008091E7028F7ECF30FCE5DF0709F464C0AC
:1046200008F47BC08091E7028F7D5EC0CE3F9CE5A1
:10463000D90709F47AC050F5C531FCE5DF0709F464
:1046400086C098F48091E702837FC3319CE5D90747
:1046500009F44AC008F471C00E942D0C9091E70241
:10466000892F97FB87F980583FC0CC3FFCE5DF07D7
:1046700009F449C008F055C08091E8028160CB3F41
:10468000DC4509F081CF8093E8027ECFC230EDE5B2
:10469000DE0709F468C0A8F4C1158DE5D80709F450
:1046A00052C08091E8028360C130DD4560F38091A3
:1046B000E802982F909591708E7F892B90FB81F95D
:1046C000E2CFC236EDE5DE0709F451C0C63AFDE59A
:1046D000DF0709F453C0C330DD4509F055CF80E052
:1046E00043C08091E70281608093E7024DCF8091C3
:1046F000E7028260F9CF8091E7028460F5CF809174
:10470000E7028860F1CF8091E8028260BCCF0E940E
:104710002D0C8091E7028068E7CF8091E702877FC8
:10472000E3CF8091E8028E7FAECF8091E8028D7F4B
:10473000AACF8091E7028F7BD7CF0E942D0C80916A
:10474000E7028F77D1CF8091E8028C7F9CCF809158
:10475000E70282FB992790F921E0922790FB82F9EA
:1047600090FB83F9C1CF81E00E94C1120DCF9091DF
:10477000E702892F8F7E94FF8061B6CF9091E70288
:10478000892F8E7F90FF8160AFCF81E00FCF8FE8C0
:1047900091E00197F1F700C0000008950C94E9053D
:1047A00026982E9A25982D9A0E94C72383B186FBBE
:1047B000882780F91D9905C090E0892B8093B50268
:1047C000089592E0FACFE091B502EE0FEE0FE0937C
:1047D000B50243B146FB882780F943B145FB222748
:1047E00020F945FF02C022E030E0822BE82BE09365
:1047F000B502EF70F0E0EE53FE4F80819091B4026D
:10480000890F8093B40220E0843054F08091B30289
:104810008F5F8093B30260E080E00E94CE2321E0AE
:104820008091B4028D3F54F48091B3028150809303
:10483000B30261E080E00E94CE2321E08091B402C7
:10484000082E000C990B64E070E00E94162F8093F4
:10485000B402822F0895CF93DF93EB0186319C45FC
:1048600011F50E9436119A81992399F08A7A91E084
:1048700009F490E09093B602811109C089E20E9488
:1048800011110E94791180E0DF91CF91089585E3A5
:10489000F6CF8091B602811104C089E20E941811FE
:1048A000F0CF85E3FBCF81E0EFCF0F931F93CF9342
:1048B000DF93C42FD22FFC0182818823C9F040935B
:1048C000B9020E94CB279093B8028093B70280E28E
:1048D0008C0F883008F050C0C77081E001C0880F8D
:1048E000CA95EAF7DF91CF911F910F910C94A3091C
:1048F0001091B902141335C08091B7029091B8029B
:104900000E94E327883C910560F5C0E2CD0F1D179A
:10491000B9F080E2810F883040F4177081E001C067
:10492000880F1A95EAF70E94AA09C83048F481E076
:104930009D2F977001C0880F9A95EAF70E94A309EE
:10494000802F0E949B09C830B8F4D77081E001C065
:10495000880FDA95EAF7DF91CF911F910F910C94B0
:10496000AA0980E28C0F883038F4C77081E001C05A
:10497000880FCA95EAF7EFCFDF91CF911F910F9182
:1049800008950F939C01CB01243F4CE5340759F166
:10499000A8F4293DFCE53F0701F12A3D4CE5340729
:1049A000D1F1283D3C4591F406E221EE41EE68ED5F
:1049B0007CE50E94552480E00F910895263FFCE598
:1049C0003F07E9F0B0F0273F3C45F9F0FC01828158
:1049D000882339F11092B902EFCF07E225EE45EEB8
:1049E00069ED7CE5E6CF06E221EE40EE64EF7CE582
:1049F000E0CF07E225EE44EE65EF7CE5DACF06E294
:104A000021EE42EE66EF7CE5D4CF07E225EE46EEDE
:104A100067EF7CE5CECF08E221E045EE6AED7CE56C
:104A2000C8CF81E0C9CF1092B9008CE08093B80064
:104A300008959F92AF92BF92CF92DF92EF92FF9232
:104A40000F931F93CF93DF93B82EEB010E94CB27D8
:104A50006C01EE24E394F12CC431D10560F025E023
:104A6000E22EF12CCF3FDC0731F0CE0164E170E0A3
:104A70000E94022F7B0184EAA82E94E8992E1092BE
:104A8000BC00A092BC000E94CB278C018091BC008E
:104A900087FF0DC08091B900887F883039F18091FF
:104AA000B900887F803111F10FEF1FEF09C00E941C
:104AB000CB27801B910B8E159F0540F30EEF1FEF48
:104AC000CF3FDC07E1F2C6010E94E3278C179D0768
:104AD000B0F2C801DF91CF911F910F91FF90EF903D
:104AE000DF90CF90BF90AF909F900895B092BB00A1
:104AF0009092BC000E94CB278C018091BC0087FF64
:104B00000AC08091B900887F883111F0803461F645
:104B100010E000E0DECF0E94CB27801B910B8E15AA
:104B20009F0558F3CBCF0F931F93CF93DF93EB01E8
:104B30008093BB0084E88093BC000E94CB278C014B
:104B40008091BC0087FF11C02091B900287F81E0CF
:104B500090E0283211F490E080E0919581959109E0
:104B6000DF91CF911F910F910895CF3FDC0741F363
:104B70000E94CB27801B910B8C179D0708F38EEFAB
:104B80009FEFEECFCF92DF92EF92FF920F931F93A2
:104B9000CF93DF936B018A017901B9010E94192536
:104BA000E6010C0D1D1DC017D10761F424E9209307
:104BB000BC00DF91CF911F910F91FF90EF90DF909C
:104BC000CF90089597FDF2CFB70189910E94932568
:104BD000EACFCF92DF92EF92FF920F931F93CF9382
:104BE000DF93C62F6A017901B8010E94192597FD4C
:104BF0000CC0B8018C2F0E949325E601EC0CFD1C23
:104C0000CE15DF0511F097FF0CC024E92093BC00FE
:104C1000DF91CF911F910F91FF90EF90DF90CF9098
:104C20000895B80189910E949325EACF84E9809381
:104C3000BC0008959093D3018093D201089590937E
:104C4000BF028093BE020895E091BE02F091BF02C0
:104C5000309721F00190F081E02D099480E00895D3
:104C60000E9424260895E091BE02F091BF02309781
:104C700099F020912A01222359F02091E70227FF81
:104C800007C0DC012C9111962C93119726E02C93F0
:104C90000280F381E02D099408952091BC023091A7
:104CA000BD022817390771F09093BD028093BC02B2
:104CB000E091BE02F091BF02309721F00680F781AB
:104CC000E02D099408952091BA023091BB02281773
:104CD000390771F09093BB028093BA02E091BE0253
:104CE000F091BF02309721F00084F185E02D099406
:104CF0000895FC01329680912A01882321F0809149
:104D0000E7029EE187FF96E080E0915008F4089565
:104D100021912223D1F38F5FF8CF662301F12091F7
:104D20002A012223F1F02091E70227FF1AC0462F23
:104D30004695469546954E3190F4677021E030E0F7
:104D400002C0220F331F6A95E2F7840F911DFC0108
:104D5000828190E02823392381E0232B69F480E0CD
:104D60000895FC01329608962191261721F0E81744
:104D7000F907D1F7F4CF81E008959C01FC01329648
:104D80009FEF80E04191461751F09F3F19F4411188
:104D900001C0982F8F5F8630A9F79F3F09F40895CF
:104DA000290F311D97FD3A95F90162830895FC01A1
:104DB000329608962191261303C0DF0111971C92A9
:104DC000E817F907B9F70895E62FE695E695E69511
:104DD000EE3168F4E80FF92FF11D677021E030E043
:104DE00001C0220F6A95EAF78281822B828308959F
:104DF000E62FE695E695E695EE3170F4E80FF92F8B
:104E0000F11D677021E030E001C0220F6A95EAF7DA
:104E10002095828128232283089520912A0122232C
:104E200029F02091E70227FD0C94E4260C94BD267E
:104E300020912A01222329F02091E70227FD0C94DA
:104E4000F8260C94D726FC01329680912A018823FB
:104E500051F08091E70287FF06C08EE1DF011D92CD
:104E60008A95E9F7089586E0F9CF08950C943527DF
:104E7000811105C081E08093C0020C94362782E046
:104E8000FACF83E08093C0020C9436270C94382725
:104E900081E08093C0020C9436270C944827089533
:104EA00008950C945027089508950C944F27CF939C
:104EB0000E9453270E948B160E945427C0E08C2F1B
:104EC0000E94CA15811105C0CF5FC430C1F7CF91D0
:104ED000089581E0FCCF08951F921FB61F92112400
:104EE0008F939F93AF93BF938091C102811113C0A1
:104EF0008091150590911605A0911705B0911805A0
:104F00004196A11DB11D8093150590931605A093A0
:104F10001705B0931805BF91AF919F918F911F9086
:104F20001FBE1F90189580911D05843031F10E949D
:104F3000E6071092C10288E190E020E40FB6F894F1
:104F4000A895809360000FBE2093600083B7817F97
:104F5000846083BF83B7816083BF7894889583B76B
:104F60008E7F83BF0FB6F894A8958091600088610A
:104F700080936000109260000FBE08950E942D0C77
:104F80000C94EE0782E084BD93E095BD9AEF97BD47
:104F900080936E0008952FB7F89480911505909135
:104FA0001605A0911705B09118052FBF08952FB7CA
:104FB000F8946091150570911605809117059091F0
:104FC00018052FBF08959C014FB7F89480911505DF
:104FD00090911605A0911705B09118054FBF821B3F
:104FE000930B089578941F921FB61F9211248F93EC
:104FF0009F93AF93BF938091150590911605A09153
:105000001705B09118050196A11DB11D80931505D6
:1050100090931605A0931705B0931805BF91AF9113
:105020009F918F911F901FBE1F90189581E08093D4
:10503000E00080E28093D8001092C9008FE19EE4E6
:105040000197F1F700C0000087E090EBDC0180934E
:10505000260590932705A0932805B093290588E19C
:105060009CE00FB6F894A895809360000FBE9093D3
:105070006000FFCF8091E50208950895CF93DF93FC
:10508000EC0180912A018823B1F18091E70287FF2A
:1050900032C060E282E08093E9008FEF9091E800F7
:1050A000815095FD06C095ED9A95F1F700008111AC
:1050B000F5CF8091E80085FF1BC080912A0170E048
:1050C00050E040E0811104C050E040E068E070E052
:1050D000CE010E94572A8091E8008E778093E800E5
:1050E00080E2FE01A5ECB2E001900D928A95E1F715
:1050F000DF91CF91089568E081E0CDCF8093C20227
:105100007093C4026093C30280911D05843001F541
:1051100082E08093E9008FEF9091E800815095FD47
:1051200006C095ED9A95F1F700008111F5CF8091B9
:10513000E80085FF0DC050E040E063E070E082ECE5
:1051400092E00E94572A8091E8008E778093E800D1
:105150000895BC0184E00C947E28BC0183E00C948B
:105160007E28089580911C05811109C00E94E72BBB
:105170000E94442C8091E20084608093E2000895B4
:1051800010921C0508950C9448276091190581E040
:10519000611101C080E00C94412790911D0581E0D0
:1051A000943009F080E0609119050C94462742E0A4
:1051B00061EC81E00E94632B42E261EC82E00E949C
:1051C000632B90911D0581E0943009F080E060919F
:1051D00019050C94382780911F05833009F460C0AD
:1051E00030F48130C9F1823009F49CC008958A30CE
:1051F00009F488C08B3009F46EC0893009F04FC0C3
:1052000080911E05813209F04AC08091220590915B
:105210002305029708F043C08091E800877F8093C0
:10522000E8008091E80082FF36C09091F300809101
:10523000F200029731F48091F100813011F0863054
:1052400021F48091F1008093E5028091E8008B7752
:105250008093E8000C94972B80911E05813AF9F415
:105260008091E800877F8093E800809122059091EB
:105270002305892B61F460E285EC92E070E00E94E6
:10528000A62A8091E8008B778093E800089560E07B
:1052900090E080E0F3CF80911D058111C2CF089589
:1052A00080911E05813AD9F78091220590912305BE
:1052B000892BA9F78091E800877F8093E80080918F
:1052C000E80080FFFCCF80912A018093F10080915B
:1052D000E8008E77BDCF80911E05813201F7809165
:1052E000220590912305892BD1F68091E800877FD4
:1052F0008093E8000E94972B8091200580932A01DB
:105300000C942D0C80911E05813249F68091E800A5
:10531000877F8093E8000E94972B809121058093DE
:10532000E602089580911E05813A09F0B8CF809178
:10533000E800877F8093E8008091E80080FFFCCF41
:105340008091E602C2CF84B7877F84BF0FB6F894FE
:10535000A895809160008861809360001092600041
:105360000FBE80E890E00FB6F894809361009093B0
:1053700061000FBE0C944D270E94E72B0E94442C25
:10538000E2EEF0E080818460808378940C94CD2EEE
:105390008EE191E00C941F2680911D058530A9F4C3
:1053A00080911D05853011F00C94BE270E94932733
:1053B00080911B058823A1F30E945727882381F33E
:1053C0000E94412A0E942D0CEBCF089508950C9461
:1053D000E929292F33272330310519F168F42130C9
:1053E000310509F444C02230310509F445C090E08C
:1053F00080E030E020E025C02132310549F1223241
:105400003105A9F780E490E02DE13BE061157105DD
:10541000C1F08DE690E020EB3AE06130710589F053
:10542000E6CF99278130910581F0009729F0029706
:10543000F1F6EFE2FAE002C0EFE5FAE0849190E0E5
:105440009F01FA01318320830895EFE3FAE0F6CF5C
:1054500089E090E025E73AE06115710591F389E074
:1054600090E02EE83AE06130710559F3C0CF82E157
:1054700090E02EE93AE0E5CF8BE390E023E63AE0D6
:10548000E0CF80E189BD82E189BD09B400FEFDCF96
:105490008091D8008F7D8093D8008091E000826059
:1054A0008093E0008091E00081FDFCCF0895AF92F1
:1054B000BF92CF92DF92FF920F931F93CF93DF9310
:1054C0006C01EB018A010E94B62BF82E811123C0DA
:1054D0000115110539F0F80180819181C81BD90BA4
:1054E000C80ED91EB12CA12C2097A9F08091E800FC
:1054F00085FD22C08091E8008E778093E800011539
:105500001105A1F0F80180819181A80EB91EB18228
:10551000A08285E0F82E8F2DDF91CF911F910F9102
:10552000FF90DF90CF90BF90AF9008950E94B62B70
:105530008823D1F2F82EEFCFF60181916F0180938D
:10554000F1002197FFEFAF1ABF0ACECFFC01809187
:1055500024059091250586179707A0F06115710520
:1055600029F49091E8009E779093E80090E061150F
:10557000710551F4911108C08091E80082FF34C098
:1055800080E00895BC01F2CF80911D058823C1F110
:105590008530C1F18091E80083FD30C08091E80042
:1055A00082FDEACF8091E80080FFE1CF8091F30097
:1055B0002091F200382F6115710519F0283031055E
:1055C00058F091E02830310509F090E02091E80092
:1055D0002E772093E800CBCF81918093F10061502A
:1055E00071092F5F3F4FE7CF80911D05882341F060
:1055F000853041F08091E80083FFBECF81E00895BF
:1056000082E0089583E00895FC0180912405909143
:10561000250586179707A0F06115710529F480917B
:10562000E8008E778093E80090E06115710551F4F1
:10563000911108C08091E80082FF35C080E0089594
:10564000BC01F2CF80911D058823C9F18530C9F1D5
:105650008091E80083FD31C08091E80082FDEACFAF
:105660008091E80080FFE1CF8091F3002091F2006B
:10567000382F6115710519F02830310558F091E087
:105680002830310509F090E08091E8008E77809312
:10569000E800CBCF84918093F1003196615071097D
:1056A0002F5F3F4FE6CF80911D05882341F0853065
:1056B00041F08091E80083FFBDCF81E0089582E052
:1056C000089583E00895982F973028F08F70809385
:1056D000E90081E008959093E900242F762F50E0AF
:1056E000981731F07091EC002091ED005091F0008E
:1056F00021FD02C09F5FE8CF3091EB003E7F3093E9
:10570000EB003091ED003D7F3093ED003091EB00E8
:1057100031603093EB007093EC002093ED005093D8
:10572000F0002091EE0027FDE5CF80E00895809104
:105730001E0587FF13C08091E80082FF06C080919C
:10574000E8008B778093E80004C080911D058111EB
:10575000F2CF089580911D058823D9F38091E80048
:1057600080FFF8CF8091E8008E77ECCF2091E400A5
:105770003091E50095E6A9012091EC00822F81701F
:1057800020FF06C08091E80080FF06C080E00895F9
:105790002091E80022FD1AC080911D05882389F020
:1057A000853089F08091EB0085FD0FC02091E400E9
:1057B0003091E50042175307F9F29150E1F684E089
:1057C000089582E0089583E0089581E008950E949D
:1057D000552C0E945D2CE0EEF0E08081816080839A
:1057E000E8EDF0E080818F77808319BCA7EDB0E011
:1057F0008C918E7F8C9380818F7E808310921C058C
:1058000008950F931F93CF93DF930E94552C0E940E
:105810005D2CC8EDD0E088818F778883888180688F
:10582000888388818F7D888319BC10921D05109212
:10583000190510921B0510921A0500EE10E0F801F0
:1058400080818B7F808388818160888342E060E0F3
:1058500080E00E94632BE1EEF0E080818E7F808308
:10586000E2EEF0E0808181608083808188608083C7
:10587000F80180818E7F8083888180618883DF91B9
:10588000CF911F910F910895E8EDF0E080818F7E18
:105890008083E7EDF0E080818160808384E082BFD7
:1058A00081E080931C050C94012CE8EDF0E08081F0
:1058B0008E7F80831092E20008951092DA00109299
:1058C000E10008951F920F920FB60F9211242F93AB
:1058D0003F934F935F936F937F938F939F93AF9378
:1058E000BF93EF93FF938091E10082FF0BC0809103
:1058F000E20082FF07C08091E1008B7F8093E1008E
:105900000E94CC2E8091DA0080FF19C08091D800CF
:1059100080FF15C08091DA008E7F8093DA0080913D
:10592000D90080FF96C080E189BD82E189BD09B4BC
:1059300000FEFDCF81E080931D050E94B22880917A
:10594000E10080FF19C08091E20080FF15C08091C6
:10595000E2008E7F8093E2008091E200806180937C
:10596000E2008091D80080628093D80019BC85E065
:1059700080931D050E94C5288091E10084FF2BC003
:105980008091E20084FF27C080E189BD82E189BD6A
:1059900089B5982F917080FFFBCF8091D8008F7DC3
:1059A0008093D8008091E1008F7E8093E100809108
:1059B000E2008F7E8093E2008091E200816080931C
:1059C000E20080911905882309F449C084E080939E
:1059D0001D050E94CD288091E10083FF29C08091A0
:1059E000E20083FF25C08091E100877F8093E10082
:1059F00082E080931D05109219058091E1008E7F51
:105A00008093E1008091E2008E7F8093E20080919C
:105A1000E20080618093E20042E060E080E00E946A
:105A2000632B8091F00088608093F0000E94C3286F
:105A3000FF91EF91BF91AF919F918F917F916F9166
:105A40005F914F913F912F910F900FBE0F901F903C
:105A5000189519BC10921D050E94C02870CF809126
:105A6000E30087FD93E090931D05B3CF1F920F9243
:105A70000FB60F9211242F933F934F935F936F9321
:105A80007F938F939F93AF93BF93CF93DF93EF93C6
:105A9000FF93D091E900DF708091EC00C82FC170B6
:105AA00080FDC0E81092E9008091F000877F80932C
:105AB000F00078940E947A2D1092E9008091F00015
:105AC00088608093F000CD2BCF70C093E900FF91E8
:105AD000EF91DF91CF91BF91AF919F918F917F9186
